:100000000C9472000C9493000C9493000C94930045
:100010000C9493000C9493000C9493000C94930014
:100020000C9493000C9493000C9493000C94930004
:100030000C9493000C9493000C9493000C949300F4
:100040000C9493000C9493000C9493000C949300E4
:100050000C9493000C94AB020C9493000C949300BA
:100060000C9493000C94B3030C9485030C949300AC
:100070000C9493000C9493000C9493000C949300B4
:100080000C9493000C9493000C9493000C949300A4
:100090000C9493000C9493000C9493000C94930094
:1000A0000C9493000C9493000C9493000C94930084
:1000B0000C9493000C9493000C9493000C94930074
:1000C0000C9493000C9493000C9493000C94930064
:1000D0000C9493000C9493000C9493000C94930054
:1000E0000C94930011241FBECFEFD1E2DEBFCDBF31
:1000F00000E00CBF13E0A0E0B2E0EAE9F7E200E0C4
:100100000BBF02C007900D92A232B107D9F713E0DE
:10011000A2E2B3E001C01D92A53BB107E1F70E9446
:1001200095000C94CC130C9400002F923F924F92A8
:100130005F926F927F928F929F92AF92BF92CF9277
:10014000DF92EF92FF920F931F93CF93DF93CDB780
:10015000DEB760970FB6F894DEBF0FBECDBF7894C0
:1001600002E021E048E069E370E380E00E940A05D4
:1001700080B3806380BB0E946301AA24BB24650115
:100180002E010894411C511C97E0292E92E0392E33
:1001900084E00E948C01885E9340D0F70E94B101F8
:1001A00060E072E080E00E9427040E945D022987DF
:1001B0003A874B875C876D877E878F87988BA601F0
:1001C000950160E070E080E090E069846A18E1E009
:1001D000F985F61508F0E0E07A84731AA1E0FA8553
:1001E000F71508F0A0E0F72DFE1BEF2FF1E07E16CB
:1001F00008F0F0E0AF2B7E2E8B84841AB1E0EB8503
:10020000E81508F0B0E0E82DEA1BF1E08E1608F0E2
:10021000F0E0BF2B8E2E9C84951AF1E0EC85E91559
:1002200008F0F0E0E92DEB1BA1E09E1608F0A0E03D
:10023000FA2B9E2EAD84EA2DEF1BF1E0AE1608F0EE
:10024000F0E0AE2EBE84EB2DEF1BA1E0BE1608F051
:10025000A0E0BE2ECF84F0E0EC2DEA1BA1E0CE168C
:1002600008F0A0E0FA2BD888D91A7D2D7F1B8AE0F0
:10027000E82E062D172D282D392D4A2D5B2D6E2F9A
:10028000C2010E949205B20180E00E94270465E04D
:1002900072E080E00E942704859A0E94FD018C98FC
:1002A0008D9A81E00E94A60185988D980E945D023A
:1002B000A22EB32EC42ED52E0E94B101B10180E032
:1002C0000E94270465CF81E480937C0087E88093B7
:1002D0007A0080917A00806480937A0080917A001D
:1002E000829586958695837080FDF8CF80917A00FF
:1002F000806480937A0080917A00829586958695B5
:10030000837080FDF8CF8091780090917900909370
:10031000230380932203089590917B00982B909360
:100320007B0080917A00806480937A0080917A00CB
:10033000829586958695837080FDF8CF80917800B0
:1003400090917900089510BA11BA089520EA3FE01B
:1003500040E050E0E22FF32F3197F1F78A95D1F783
:100360000895CF92DF92EF92FF920F931F93CF9356
:10037000DF93CDB7DEB725970FB6F894DEBF0FBE7B
:10038000CDBF84E00E948C017C0169E170E00E9495
:1003900025136B0100E010E004C06EE280E00E94D3
:1003A000FA03802F90E00F5F1F4F8C159D05A8F377
:1003B00097018AE0E82E022F132F20E030E040E082
:1003C00050E060E070E06E010894C11CD11CC601D1
:1003D0000E949205B60180E00E94270425960FB680
:1003E000F894DEBF0FBECDBFDF91CF911F910F916B
:1003F000FF90EF90DF90CF9008958C9A8D9821E038
:1004000080EA9FE0A0E0B0E0E82FF92F3197F1F704
:100410002A95D1F78C9823E6E82FF92F3197F1F739
:100420002A95D1F70895AF92BF92CF92DF92EF92C3
:10043000FF920F931F9310BA11BA80B3806380BBF1
:100440008C9A24E680EA9FE0A0E0B0E0E82FF92F44
:100450003197F1F72A95D1F70E94400284E00E947B
:100460008C010E945D02A22EB32E10BAC5011F910D
:100470000F91FF90EF90DF90CF90BF90AF900895D5
:10048000279A16BC89EF87BD84B5826084BD85B587
:10049000836085BDEEE6F0E08081826080837894A1
:1004A000089580912E03882319F480E090E0089548
:1004B00010922E0381E090E008952F923F924F9288
:1004C0005F926F927F928F929F92AF92BF92CF92E4
:1004D000DF92EF92FF920F931F93209024033090AE
:1004E00025034090260350902703609028037090C6
:1004F000290380902A0390902B03222D332D442D25
:10050000552D662D772D882D992D1F910F91FF90D8
:10051000EF90DF90CF90BF90AF909F908F907F90A3
:100520006F905F904F903F902F9008956898709AC9
:1005300016BC14BC15BC6099FECF82E085BD609BE3
:10054000FECF15BC86B5869590E001979093C500C7
:100550008093C40008951F920F920FB60F9211243A
:100560008F929F92AF92BF92CF92DF92EF92FF92C3
:100570000F931F932F933F934F935F936F937F93AB
:100580008F939F93AF93BF93EF93FF93CF93DF939B
:10059000CDB7DEB72897DEBFCDBF00912403109101
:1005A0002503209126033091270340912803509181
:1005B000290360912A0370912B0381E089831A82B9
:1005C0001B821C821D821E821F82188688248394AF
:1005D000800E801608F080E09A80910EA1E09116BE
:1005E00008F0A0E0890D91E0891508F090E0A92BB2
:1005F000982EAB80A20EB1E0A21608F0B0E08A2FD0
:100600008A0D91E08A1508F090E0B92BA82EBC80E5
:10061000B30EA1E0B31608F0A0E08B2F8B0D91E094
:100620008B1508F090E0A92BB82ECD80C40EB1E058
:10063000C41608F0B0E08A2F8C0D91E08C1508F0FC
:1006400090E0B92BC82EDE80D50EA1E0D51608F0BB
:10065000A0E08B2F8D0D91E08D1508F090E0A92B77
:10066000D82EEF80E60EF1E0E61608F0F0E09A2FC3
:100670009E0D81E09E1508F080E08F2BF884F70E28
:100680008F0D8092240390922503A0922603B092AE
:100690002703C0922803D092290390932A038093C2
:1006A0002B0380912C0390912D03019690932D03A1
:1006B00080932C03885E934038F081E080932E0372
:1006C00010922D0310922C032896F894DEBFCDBF14
:1006D000DF91CF91FF91EF91BF91AF919F918F915A
:1006E0007F916F915F914F913F912F911F910F914A
:1006F000FF90EF90DF90CF90BF90AF909F908F9042
:100700000F900FBE0F901F9018951F920F920FB66B
:100710000F9211248F939F93EF93FF939091710306
:1007200080917203981731F48091C1008F7D80937E
:10073000C10010C08091710390E001968F7390709A
:1007400080937103E0917103F0E0EF5CFC4F8081D6
:100750008093C600FF91EF919F918F910F900FBEF4
:100760000F901F9018951F920F920FB60F921124A1
:100770002F933F938F939F93EF93FF932091B30316
:100780008091B40330E090E001968F739070281749
:10079000390781F08091B40390E001968F739070D7
:1007A0008093B403E091B4038091C600F0E0ED586B
:1007B000FC4F8083FF91EF919F918F913F912F91FB
:1007C0000F900FBE0F901F9018956898709A16BCE6
:1007D00014BC15BC6099FECF82E085BD609BFECF46
:1007E00015BC86B5869590E001979093C5008093DF
:1007F000C4000895482F209171038091720330E066
:1008000090E001968F73907028173907A1F3433059
:1008100019F4A1E3B1E009C0A42FB0E083E0AA0F6E
:10082000BB1F8A95E1F7AF53BF4F8091720390E0F1
:1008300001968F73907080937203E0917203F0E0E1
:10084000EF5CFC4F60838C9180628C9308951F93C2
:10085000CF93DF93182FEB0104C02196812F0E94C4
:10086000FA0368816623C9F7DF91CF911F9108953C
:100870009091B3038091B40320E030E0981711F019
:1008800021E030E0C90108951F93282F9091B30310
:100890008091B4039817D1F38091B30390E001964F
:1008A0008F7390708093B303E091B303F0E0ED5841
:1008B000FC4F108110933003612F822F0E94FA03A6
:1008C000812F90E01F910895CF92DF92EF92FF92D7
:1008D0001F93CF93DF93182F7B010E944404E701FD
:1008E00093E1C92ED12CCE0CDF1C25C0883079F0C5
:1008F000CC15DD0510F489931BC068E0812F0E94A0
:10090000FA0360E2812F0E94FA0368E004C0CE156A
:10091000DF0529F460E2812F0E94FA0309C060E23A
:10092000812F0E94FA0368E0812F0E94FA03219729
:10093000812F0E9444048D30C9F680932F036AE012
:10094000812F0E94FA031882DF91CF911F91FF90AF
:10095000EF90DF90CF900895382F262F842F6AE0F4
:100960000E941913905D90931C02842F0E9419130A
:100970000E941913905D90931B02822F0E941913FD
:10098000905D90931F02822F0E9419130E941913E9
:10099000905D90931E0269E172E0832F0E9427040C
:1009A0000895982F6132C1F0623238F46F3181F0CE
:1009B000603280F46E31D9F409C0633289F0633259
:1009C00068F0643279F0653291F40EC080E30DC0B6
:1009D00081E30BC082E309C083E307C084E305C061
:1009E00085E303C086E301C087E38093160263E1D9
:1009F00072E0892F0E94270408951F93182F6AE040
:100A000072E00E9427046FE072E0812F0E942704A9
:100A10001F910895CF92DF92EF92FF920F931F9351
:100A2000CF93DF93F42EE22E833019F4C0E3D1E0AC
:100A300009C0C82FD0E023E0CC0FDD1F2A95E1F7D5
:100A4000C054DF4F6E010894C11CD11C198118617C
:100A50001D829B0140E050E060E472E48FE090E092
:100A60000E943913215030402C831B7F1983FE01D3
:100A700032968A81897F8A8397E0F91641F098E05F
:100A8000F91639F096E0F91631F4826003C08460FB
:100A900001C086608A8380818F7C808391E0E91623
:100AA00021F092E0E91629F402C0806301C080625F
:100AB0008083023019F4808188608083F601808110
:100AC000806A80831092B3031092B4031092710372
:100AD00010927203DF91CF911F910F91FF90EF90D1
:100AE000DF90CF900895FC0120E030E016C090E048
:100AF000C0978A309105A0F4280F391F3196808164
:100B000080538A3050F4C901880F991F43E0220FA7
:100B1000331F4A95E1F7280F391F8081882339F761
:100B2000C90108952F923F924F925F926F927F92E8
:100B30008F929F92AF92BF92CF92DF92EF92FF92ED
:100B40000F931F93CF93DF93CDB7DEB72C970FB6DC
:100B5000F894DEBF0FBECDBF9A838983202E312E3D
:100B6000422E532E642E752E862E972E9C878B87B1
:100B700030E040E050E060E070E080E090E0EB8248
:100B80003C834D835E836F83788789879A87AB80A8
:100B9000BB24CC24DD24EE24FF2400E010E0222D31
:100BA000332D442D552D662D772D882D992D0E949E
:100BB000C70C822F805D8A3308F0895FEB85FC8546
:100BC0008193FC87EB87AB80BB24CC24DD24EE240F
:100BD000FF2400E010E0222D332D442D552D662DED
:100BE000772D882D992D0E943A06B32EC42ED52E2E
:100BF000E62EF72E082F192F222E332E442E552E97
:100C0000662E772E882E992E822F8B298C298D295E
:100C10008E298F29802B812B09F0B9CFEB85FC859C
:100C200010829F0121503040A981BA8107C09C9158
:100C3000F90180818D93908321503040A217B30732
:100C4000B0F32C960FB6F894DEBF0FBECDBFDF9188
:100C5000CF911F910F91FF90EF90DF90CF90BF90B9
:100C6000AF909F908F907F906F905F904F903F904C
:100C70002F900895ACE6B0E0E0E4F6E00C94951314
:100C8000222E332E442E552E662E772E882E992E08
:100C90006E2DA8E0FE013196EA2E1192EA94E9F752
:100CA00029823A824B825C826D827E828F82988614
:100CB000FE0139961192AA95E9F7A986BA86CB86E4
:100CC000DC866D87FE860F87188BA984BA84CB8457
:100CD000DC846D847E848F84988809811A812B81BD
:100CE0003C8109AB1AAB2BAB3CAB2D803E804F80D7
:100CF0005884611471048104910409F0B8C32A1462
:100D00003B044C045D0408F061C110E0A11610E042
:100D1000B10611E0C10610E0D10688F42FEFA2164B
:100D2000B104C104D10409F028F420E030E040E02F
:100D300050E017C028E030E040E050E012C030E062
:100D4000A31630E0B30630E0C30631E0D30628F442
:100D500020E130E040E050E004C028E130E040E035
:100D600050E080E290E0A0E0B0E0821B930BA40B87
:100D7000B50B3501460104C0969487947794679427
:100D80002A95D2F7A40193012E5D3D4FF9012081F0
:100D9000AC01BD01421B51096109710941155105A1
:100DA00061057105B9F1CA01042E04C0AA0CBB1C6F
:100DB000CC1CDD1C0A94D2F720E230E0241B350B5A
:100DC00069A87AA88BA89CA804C096948794779465
:100DD00067942A95D2F782017101082E04C0EE0CA7
:100DE000FF1C001F111F0A94D2F7130124012E28A3
:100DF0003F28402A512AE9A8FAA80BA91CA904C037
:100E0000EE0CFF1C001F111F8A95D2F7E9AAFAAA5F
:100E10000BAB1CAB86012227332721960CAF1DAFED
:100E20002EAF3FAF2197A6019501407050702596D7
:100E30002CAF3DAF4EAF5FAF2597C201B1012196F8
:100E40002CAD3DAD4EAD5FAD21970E947313299639
:100E50002CAF3DAF4EAF5FAF2997CA01B9012596C0
:100E60002CAD3DAD4EAD5FAD25970E9454133B01B7
:100E70004C01C201B10121962CAD3DAD4EAD5FAD2F
:100E800021970E947313CB0177276627E9A8FAA858
:100E90000BA91CA99801442755277B018C01E22A44
:100EA000F32A042B152BE614F7040805190560F541
:100EB00029962CAD3DAD4EAD5FAD29972150304008
:100EC0004040504029962CAF3DAF4EAF5FAF2997C1
:100ED000EA0CFB1C0C1D1D1DEA14FB040C051D0572
:100EE00098F0E614F7040805190570F42150304015
:100EF0004040504029962CAF3DAF4EAF5FAF299791
:100F0000EA0CFB1C0C1D1D1DE618F7080809190941
:100F1000C801B70121962CAD3DAD4EAD5FAD219717
:100F20000E94731339014A01CA01B90125962CADFB
:100F30003DAD4EAD5FAD25970E9454131B012C01B2
:100F4000C801B70121962CAD3DAD4EAD5FAD2197E7
:100F50000E947313CB017727662729A93AA94BA9C9
:100F60005CA940705070262B372B482B592B22152B
:100F7000330544055505C0F40894610871088108DB
:100F800091082A0D3B1D4C1D5D1D2A153B054C0586
:100F90005D0550F0221533054405550528F40894E5
:100FA00061087108810891082996ECACFDAC0EAD82
:100FB0001FAD2997D70199278827682A792A8A2A75
:100FC0009B2A6DAA7EAA8FAA98AEB2C4A114B104BE
:100FD000C104D10461F461E070E080E090E020E0C1
:100FE00030E040E050E00E94731359016A0100E0D4
:100FF000A01600E0B00601E0C00600E0D00688F4CC
:101000001FEFA116B104C104D10409F028F420E0B7
:1010100030E040E050E017C028E030E040E050E031
:1010200012C020E0A21620E0B20620E0C20621E0B5
:10103000D20628F420E130E040E050E004C028E18E
:1010400030E040E050E0F0E2EF2EF12C012D112DC8
:10105000D801C701821B930BA40BB50B35014601C8
:1010600004C096948794779467942A95D2F7A40144
:1010700093012E5D3D4FF9012081821B9109A10949
:10108000B1090097A105B10561F482017101EA1867
:10109000FB080C091D09E1E06E2E712C812C912CAE
:1010A0001AC198A38F8F0F8C04C0AA0CBB1CCC1C38
:1010B000DD1C0A94D2F7E81AF90A0A0B1B0BD801B7
:1010C000C70182017101082E04C016950795F79497
:1010D000E7940A94D2F729A93AA94BA95CA904C0BC
:1010E00056954795379527958A95D2F7D201C10134
:1010F0000F8C04C0880F991FAA1FBB1F0A94D2F738
:10110000282B392B4A2B5B2B2DA73EA74FA758AB7B
:101110009601442755272D962CAF3DAF4EAF5FAFBC
:101120002D976FEF262E6FEF362E412C512C2A2053
:101130003B204C205D20C801B7010E9473136196CB
:101140002CAF3DAF4EAF5FAF6197CA01B901A201AD
:1011500091010E9454133B014C01C801B7012D9627
:101160002CAD3DAD4EAD5FAD2D970E947313CB01FD
:1011700077276627EDA4FEA40FA518A99801442798
:10118000552779018A01E62AF72A082B192BE6143C
:10119000F7040805190560F561962CAD3DAD4EAD1F
:1011A0005FAD6197215030404040504061962CAF78
:1011B0003DAF4EAF5FAF6197EA0CFB1C0C1D1D1DD0
:1011C000EA14FB040C051D0598F0E614F704080565
:1011D000190570F4215030404040504061962CAFCA
:1011E0003DAF4EAF5FAF6197EA0CFB1C0C1D1D1DA0
:1011F000E618F70808091909C801B7012D962CADA2
:101200003DAD4EAD5FAD2D970E94731339014A017C
:10121000CA01B901A20191010E9454131B012C01C2
:10122000C801B7012D962CAD3DAD4EAD5FAD2D97EC
:101230000E947313CB01772766272DA53EA54FA5E6
:1012400058A9407050707B018C01E22AF32A042BCC
:10125000152BE214F30404051505E0F40894610865
:10126000710881089108EA0CFB1C0C1D1D1DEA1475
:10127000FB040C051D0570F0E214F30404051505CC
:1012800048F408946108710881089108EA0CFB1C75
:101290000C1D1D1D89A99AA9ABA9BCA90F8C04C05E
:1012A000880F991FAA1FBB1F0A94D2F789AB9AAB6C
:1012B000ABABBCABE218F3080409150961962CAD81
:1012C0003DAD4EAD5FAD6197D90199278827682A5A
:1012D000792A8A2A9B2A69AE7AAE8BAE9CAEC60169
:1012E000AA27BB2765968CAF9DAFAEAFBFAF659702
:1012F000A60195014070507069962CAF3DAF4EAF7E
:101300005FAF6997C801B70165962CAD3DAD4EAD95
:101310005FAD65970E94731319012A01CA01B901D3
:1013200069962CAD3DAD4EAD5FAD69970E945413EB
:101330003B014C01C801B70165962CAD3DAD4EADEA
:101340005FAD65970E947313CB0177276627E9A8E5
:10135000FAA80BA91CA99801442755277B018C01E9
:10136000E22AF32A042B152BE614F70408051905C5
:10137000E0F408942108310841085108EA0CFB1CEC
:101380000C1D1D1DEA14FB040C051D0570F0E61470
:10139000F7040805190548F40894210831084108A4
:1013A0005108EA0CFB1C0C1D1D1DE618F708080966
:1013B0001909C801B70165962CAD3DAD4EAD5FADC5
:1013C00065970E94731339014A01CA01B9016996F0
:1013D0002CAD3DAD4EAD5FAD69970E945413698F42
:1013E0007A8F8B8F9C8FC801B70165962CAD3DAD70
:1013F0004EAD5FAD65970E947313CB0177276627CB
:1014000029A93AA94BA95CA940705070262B372B0B
:10141000482B592B898D9A8DAB8DBC8D2817390798
:101420004A075B07C0F408946108710881089108B5
:101430002A0D3B1D4C1D5D1D2A153B054C055D0508
:1014400050F0281739074A075B0728F40894610809
:10145000710881089108D10199278827682A792A7B
:101460008A2A9B2A6DAA7EAA8FAA98AE65C22614E4
:1014700037044804590408F44EC290E0691690E01D
:10148000790691E0890690E0990688F4AFEF6A1634
:1014900071048104910409F028F420E030E040E078
:1014A00050E017C028E030E040E050E012C0B0E06B
:1014B0006B16B0E07B06B0E08B06B1E09B0628F42B
:1014C00020E130E040E050E004C028E130E040E0BE
:1014D00050E0E0E2EE2EF12C012D112DD801C701D4
:1014E000821B930BA40BB50BAD968CAF9DAFAEAF2B
:1014F000BFAFAD97D401C30104C0B695A79597952A
:1015000087952A95D2F79C01AD012E5D3D4FD901FB
:101510002C91AD968CAD9DADAEADBFADAD97821BA0
:101520009109A109B1090097A105B10589F46214D7
:1015300073048404950408F4F3C169A87AA88BA8FD
:101540009CA86A147B048C049D0408F0E9C1E3C1E3
:101550009E8F8D8FE81AF90A0A0B1B0BA8019701C1
:1015600086017501022E04C016950795F794E7943D
:101570000A94D2F7D401C3010D8C04C0880F991FBF
:10158000AA1FBB1F0A94D2F737014801682A792A9B
:101590008A2A9B2A0D8C04C0AA0CBB1CCC1CDD1C07
:1015A0000A94D2F7A9A2BAA2CBA2DCA2820171014D
:1015B000022E04C016950795F794E7940A94D2F783
:1015C00089A99AA9ABA9BCA904C0B695A795979576
:1015D00087952A95D2F79C01AD01D201C1010D8CEE
:1015E00004C0880F991FAA1FBB1F0A94D2F7282B8B
:1015F000392B4A2B5B2B29A73AA74BA75CA7940151
:10160000442755276D962CAF3DAF4EAF5FAF6D971A
:101610006FEF262E6FEF362E412C512C26203720CF
:1016200048205920C801B7010E947313A1962CAF1E
:101630003DAF4EAF5FAFA197CA01B901A2019101C1
:101640000E9454135B016C01C801B7016D962CAD6B
:101650003DAD4EAD5FAD6D970E947313CB01772703
:101660006627E9A4FAA40BA51CA5980144275527D1
:101670007B018C01E22AF32A042B152BEA14FB04CC
:101680000C051D0560F5A1962CAD3DAD4EAD5FADD1
:10169000A1972150304040405040A1962CAF3DAF23
:1016A0004EAF5FAFA197E60CF71C081D191DE6149D
:1016B000F7040805190598F0EA14FB040C051D054C
:1016C00070F42150304040405040A1962CAF3DAFC7
:1016D0004EAF5FAFA197E60CF71C081D191DEA1865
:1016E000FB080C091D09C801B7016D962CAD3DAD75
:1016F0004EAD5FAD6D970E94731359016A01CA0127
:10170000B901A20191010E9454131B012C01C801CF
:10171000B7016D962CAD3DAD4EAD5FAD6D970E949E
:101720007313CB017727662729A53AA54BA55CA59E
:10173000407050707B018C01E22AF32A042B152B98
:10174000E214F30404051505E0F40894A108B108B7
:10175000C108D108E60CF71C081D191DE614F70492
:101760000805190570F0E214F3040405150548F4A2
:101770000894A108B108C108D108E60CF71C081D9F
:10178000191DE218F30804091509EDA2FEA20FA322
:1017900018A7A1966CAC7DAC8EAC9FACA197D30181
:1017A00099278827A82AB92ACA2ADB2AADAABEAA5D
:1017B000CFAAD8AE860175012FEF3FEF40E050E091
:1017C000E222F32204231523C601AA27BB27A996E8
:1017D0008CAF9DAFAEAFBFAFA997A9A0BAA0CBA069
:1017E000DCA0A222B322C422D52269A07AA08BA0B9
:1017F0009CA0140144245524C801B701A6019501F9
:101800000E945413A5966CAF7DAF8EAF9FAFA59786
:10181000C801B701A20191010E9454133B014C0180
:10182000A9966CAD7DAD8EAD9FADA997A601950132
:101830000E9454137B018C01A9966CAD7DAD8EADD9
:101840009FADA997A20191010E9454135B016C0105
:10185000A8019701260D371D481D591DA5966CAC92
:101860007DAC8EAC9FACA597C401AA27BB27280FDF
:10187000391F4A1F5B1F2E153F054007510748F4CB
:10188000E12CF12C61E0062F112DAE0CBF1CC01E07
:10189000D11ECA01AA27BB27A80EB91ECA1EDB1E6D
:1018A0006DA07EA08FA098A46A147B048C049D0474
:1018B00028F1A614B704C804D904D1F5D901992791
:1018C0008827A5962CAD3DAD4EAD5FADA597407078
:1018D0005070820F931FA41FB51F29A93AA94BA9C5
:1018E0005CA90D8C04C0220F331F441F551F0A949E
:1018F000D2F7281739074A075B07D0F40DA91EA9AC
:101900002FA938AD01501040204030400DAB1EAB28
:101910002FAB38AF0DC01DAA1EAA1FAA18AE08C053
:1019200021E030E040E050E02DAB3EAB4FAB58AF94
:1019300019AE1AAE1BAE1CAE88E0FE017196119274
:101940008A95E9F78DA99EA9AFA9B8AD898B9A8B25
:10195000AB8BBC8B69AC7AAC8BAC9CAC6D8A7E8A51
:101960008F8A988E29883A884B885C886D887E8813
:101970008F88988C222D332D442D552D662D772D53
:10198000882D992DE2E1C459DF4F0C94B113AEE5D7
:10199000B0E0EDECFCE00C949513222E332E442E97
:1019A000552E662E772E882E992E2A2DA8E0FE0120
:1019B0003196AA2E1192AA94E9F729823A824B8293
:1019C0005C826D827E828F829886FE0139961192AA
:1019D000AA95E9F72987BA86CB86DC86ED86FE864E
:1019E0000F87188BA984BA84CB84DC84ED84FE84B1
:1019F0000F85188929813A814B815C812FA338A7F3
:101A000049A75AA76D807E808F809884E114F104E5
:101A10000105110509F0F2C26A147B048C049D04CF
:101A200008F000C130E0A31630E0B30631E0C30691
:101A300030E0D30688F44FEFA416B104C104D104FA
:101A400009F028F420E030E040E050E017C028E042
:101A500030E040E050E012C050E0A51650E0B5067E
:101A600050E0C50651E0D50628F420E130E040E022
:101A700050E004C028E130E040E050E080E290E037
:101A8000A0E0B0E0821B930BA40BB50B150126015F
:101A900004C056944794379427942A95D2F7A2010C
:101AA00091012E5D3D4FF9012081821B9109A10911
:101AB000B1098BAF9CAFADAFBEAF0097A105B1052B
:101AC000D1F18BAD9CAD082E04C0AA0CBB1CCC1C64
:101AD000DD1C0A94D2F720E230E0281B390BEFA07E
:101AE000F8A409A51AA504C016950795F794E794DC
:101AF0002A95D2F7A801970184017301082E04C02A
:101B0000EE0CFF1C001F111F0A94D2F739014A0185
:101B10006E287F28802A912A0FA118A529A53AA509
:101B200004C0000F111F221F331F8A95D2F70FA385
:101B300018A729A73AA796014427552723962CAF23
:101B40003DAF4EAF5FAF2397D601C501A070B07017
:101B500027968CAF9DAFAEAFBFAF2797C401B3013F
:101B60000E947313CA01B90127962CAD3DAD4EAD4D
:101B70005FAD27970E9454131B012C01C401B301D0
:101B800023962CAD3DAD4EAD5FAD23970E947313F0
:101B9000CB01772766276FA078A489A49AA4940123
:101BA000442755277B018C01E22AF32A042B152BAD
:101BB000E214F3040405150590F4EA0CFB1C0C1D5B
:101BC0001D1DEA14FB040C051D0548F0E214F30486
:101BD0000405150520F4EA0CFB1C0C1D1D1DE21864
:101BE000F30804091509C801B70123962CAD3DADD2
:101BF0004EAD5FAD23970E947313CA01B9012796BA
:101C00002CAD3DAD4EAD5FAD27970E9454133B0107
:101C10004C01C801B70123962CAD3DAD4EAD5FAD73
:101C20002397AFC1A114B104C104D10461F461E0F0
:101C300070E080E090E020E030E040E050E00E9482
:101C4000731359016A0100E0A01600E0B00601E03C
:101C5000C00600E0D00688F41FEFA116B104C1044D
:101C6000D10409F028F420E030E040E050E017C053
:101C700028E030E040E050E012C020E0A21620E072
:101C8000B20620E0C20621E0D20628F420E130E0CE
:101C900040E050E004C028E130E040E050E060E285
:101CA000E62EF12C012D112DD801C701821B930BBB
:101CB000A40BB50B1501260104C056944794379424
:101CC00027942A95D2F7A20191012E5D3D4FF9018B
:101CD0002081821B9109A109B1098BAF9CAFADAFE7
:101CE000BEAF0097A105B10539F484017301EA186C
:101CF000FB080C091D09DFC02BAC3CAC3C8E2B8EC5
:101D00000B8C04C0AA0CBB1CCC1CDD1C0A94D2F7A3
:101D1000D801C7012BAD3CAD4DAD5EAD821B930B21
:101D2000A40BB50B84017301082E04C0169507950A
:101D3000F794E7940A94D2F72FA138A549A55AA59C
:101D400004C056954795379527958A95D2F7D401C3
:101D5000C3010B8C04C0880F991FAA1FBB1F0A94D4
:101D6000D2F7282B392B4A2B5B2B2BAB3CAB4DAB43
:101D70005EAB160144245524D601C501A070B07095
:101D80002B968CAF9DAFAEAFBFAF2B97C801B701FD
:101D9000A20191010E947313CA01B9012B962CADC7
:101DA0003DAD4EAD5FAD2B970E9454133B014C01EE
:101DB000C801B701A20191010E947313CB017727DB
:101DC0006627EBA8FCA80DA91EA998014427552752
:101DD00079018A01E62AF72A082B192BE614F70461
:101DE0000805190590F4EA0CFB1C0C1D1D1DEA14D6
:101DF000FB040C051D0548F0E614F7040805190559
:101E000020F4EA0CFB1C0C1D1D1DE618F708080940
:101E10001909C801B701A20191010E947313CA01F7
:101E2000B9012B962CAD3DAD4EAD5FAD2B970E9409
:101E300054133B014C01C801B701A20191010E945A
:101E40007313CB01772766272BA93CA94DA95EA95F
:101E5000407050707B018C01E22AF32A042B152B71
:101E6000E614F7040805190590F4EA0CFB1C0C1D98
:101E70001D1DEA14FB040C051D0548F0E614F704CB
:101E80000805190520F4EA0CFB1C0C1D1D1D2FA1D3
:101E900038A549A55AA50B8C04C0220F331F441F37
:101EA000551F0A94D2F72FA338A749A75AA7E618B7
:101EB000F70808091909160144245524D601C5015B
:101EC000A070B0702F968CAF9DAFAEAFBFAF2F9705
:101ED000C801B701A20191010E947313CA01B9019F
:101EE0002F962CAD3DAD4EAD5FAD2F970E94541394
:101EF0003B014C01C801B701A20191010E9473137B
:101F0000CB0177276627EFA0F8A409A51AA59801A9
:101F1000442755277B018C01E22AF32A042B152B39
:101F2000E614F7040805190590F4EA0CFB1C0C1DD7
:101F30001D1DEA14FB040C051D0548F0E614F7040A
:101F40000805190520F4EA0CFB1C0C1D1D1DE618E4
:101F5000F70808091909C801B701A20191010E94F7
:101F60007313CA01B9012F962CAD3DAD4EAD5FADD7
:101F70002F970E9454133B014C01C801B701A201E5
:101F800091010E947313CB01772766272FA138A5F3
:101F900049A55AA540705070262B372B482B592B3A
:101FA000261537054805590590F42A0D3B1D4C1D93
:101FB0005D1D2A153B054C055D0548F026153705C6
:101FC0004805590520F42A0D3B1D4C1D5D1D2619A1
:101FD000370948095909DA01C9010BAC04C0B695A3
:101FE000A795979587950A94D2F7898B9A8BAB8B97
:101FF000BC8B1D8A1E8A1F8A188E06C36E147F042E
:102000008006910648F40FA118A529A53AA5098BC9
:102010001A8B2B8B3C8B9AC020E0E21620E0F20654
:1020200021E0020720E0120788F43FEFE316F104F5
:102030000105110509F028F420E030E040E050E00F
:1020400017C028E030E040E050E012C040E0E41665
:1020500040E0F40640E0040741E0140728F420E1E2
:1020600030E040E050E004C028E130E040E050E0E3
:1020700060E2262E312C412C512CD201C101821B51
:10208000930BA40BB50B6F968CAF9DAFAEAFBFAFEC
:102090006F97D801C70104C0B695A7959795879506
:1020A0002A95D2F79C01AD012E5D3D4FD9012C91AF
:1020B0006F968CAD9DADAEADBFAD6F97821B910994
:1020C000A109B1090097A105B10509F044C0E614C2
:1020D000F7040805190548F02FA038A449A45AA40C
:1020E0002A143B044C045D0448F12FA138A549A5EE
:1020F0005AA52A193B094C095D096E187F08800A08
:10210000910A8401730160E070E080E090E04FA0EC
:1021100058A469A47AA4421653066406750620F4EE
:1021200061E070E080E090E037014801661A770ACC
:10213000880A990A2FA338A749A75AA7AFA0B8A41D
:10214000C9A4DAA4A98ABA8ACB8ADC8A6D8A7E8A73
:102150008F8A988E59C29A8F898F281A390A4A0A0B
:102160005B0A3E8E2D8EA60195010D8C04C05695FE
:102170004795379527950A94D2F7D801C701098C5E
:1021800004C0880F991FAA1FBB1F0A94D2F7282BDF
:10219000392B4A2B5B2B2FAB38AF49AF5AAF098C89
:1021A00004C0AA0CBB1CCC1CDD1C0A94D2F7AF8E59
:1021B000B8A2C9A2DAA2840173010D8C04C01695DD
:1021C0000795F794E7940A94D2F72FA138A549A56B
:1021D0005AA50D8C04C056954795379527950A94B6
:1021E000D2F7D401C301098C04C0880F991FAA1F1C
:1021F000BB1F0A94D2F7282B392B4A2B5B2B2FA716
:1022000038AB49AB5AAB2FA138A549A55AA5098CC3
:1022100004C0220F331F441F551F0A94D2F72BA36B
:102220003CA34DA35EA38FA998ADA9ADBAADCD01D6
:10223000AA27BB2763968CAF9DAFAEAFBFAF6397A6
:102240006FA878AC89AC9AAC4FEF242E4FEF342EA8
:10225000412C512C6220732084209520C801B701A5
:1022600063962CAD3DAD4EAD5FAD63970E94731389
:1022700019012A01CA01B901A40193010E94541352
:102280005B016C01C801B70163962CAD3DAD4EAD4D
:102290005FAD63970E947313CB0177276627EFA486
:1022A000F8A809A91AA99801442755277B018C0190
:1022B000E22AF32A042B152BEA14FB040C051D0556
:1022C00000F5089421083108410851082FA938ADBC
:1022D00049AD5AADE20EF31E041F151FE216F306B8
:1022E0000407150770F0EA14FB040C051D0548F4FB
:1022F00008942108310841085108E20EF31E041F1A
:10230000151FEA18FB080C091D09C801B7016396DF
:102310002CAD3DAD4EAD5FAD63970E947313590177
:102320006A01CA01B901A40193010E9454133B013F
:102330004C01C801B70163962CAD3DAD4EAD5FAD0C
:1023400063970E947313CB01772766272FA538A9BF
:1023500049A95AA9407050707B018C01E22AF32AE6
:10236000042B152BE614F7040805190500F508944D
:10237000A108B108C108D1088FA998ADA9ADBAAD1F
:10238000E80EF91E0A1F1B1FE816F9060A071B07AD
:1023900070F0E614F7040805190548F40894A1083C
:1023A000B108C108D108E80EF91E0A1F1B1FE61864
:1023B000F70808091909EBA6FCA60DA71EA7D1016D
:1023C0009927882786017501E82AF92A0A2B1B2BF1
:1023D000BFEFAB2EBFEFBB2EC12CD12CAE20BF2048
:1023E000C022D1227801002711276F8C78A089A004
:1023F0009AA0FFEF2F2EFFEF3F2E412C512C622091
:102400007320842095202F8D38A149A15AA19A01CB
:10241000442755276B962CAF3DAF4EAF5FAF6B9700
:10242000C601B501A40193010E94541367966CAFD5
:102430007DAF8EAF9FAF6797C601B5016B962CAD90
:102440003DAD4EAD5FAD6B970E9454131B012C0147
:10245000C801B701A40193010E9454135B016C01F0
:10246000C801B7016B962CAD3DAD4EAD5FAD6B971E
:102470000E9454137B018C01A6019501220D331D8E
:10248000441D551D67962CAC3DAC4EAC5FAC6797B8
:10249000C201AA27BB27280F391F4A1F5B1F2A1515
:1024A0003B054C055D0548F4412C512C61E0662E3E
:1024B000712CE40CF51C061D171DCA01AA27BB27A9
:1024C00057016801A80EB91ECA1EDB1EA9013327D9
:1024D000222767968CAD9DADAEADBFAD6797A0705E
:1024E000B07079018A01E80EF91E0A1F1B1F6BA448
:1024F0007CA48DA49EA46A147B048C049D0470F0BB
:10250000A614B704C804D90491F52BA13CA14DA190
:102510005EA12E153F054007510748F537014801D8
:102520008F8D98A1A9A1BAA1681A790A8A0A9B0A73
:10253000A60195012FA838AC49AC5AAC2219330931
:102540004409550960E070E080E090E0E614F7048B
:102550000805190520F461E070E080E090E0590181
:102560006A01A61AB70AC80AD90A840173014BA0E6
:102570005CA06DA07EA04E185F08600A710A8301FE
:1025800072012BA53CA54DA55EA52A193B094C0956
:102590005D0960E070E080E090E06BA07CA08DA021
:1025A0009EA06E147F048006910620F461E070E026
:1025B00080E090E0261B370B480B590BDA01C9016C
:1025C0000D8C04C0220F331F441F551F0A94D2F7ED
:1025D000098C04C016950795F794E7940A94D2F7EE
:1025E0002E293F29402B512B298B3A8B4B8B5C8B0F
:1025F000098C04C0B695A795979587950A94D2F74C
:102600008D8B9E8BAF8BB88F29883A884B885C88DE
:102610006D887E888F88988C222D332D442D552DE2
:10262000662D772D882D992DE2E1C25ADF4F0C944B
:10263000B113991B79E004C0991F961708F0961BF7
:10264000881F7A95C9F780950895AA1BBB1B51E195
:1026500007C0AA1FBB1FA617B70710F0A61BB70B12
:10266000881F991F5A95A9F780959095BC01CD01B7
:10267000089597FB092E05260ED057FD04D033D0C0
:102680000AD0001C38F450954095309521953F4F65
:102690004F4F5F4F0895F6F790958095709561952F
:1026A0007F4F8F4F9F4F0895629FD001739FF0011E
:1026B000829FE00DF11D649FE00DF11D929FF00DD2
:1026C000839FF00D749FF00D659FF00D9927729F09
:1026D000B00DE11DF91F639FB00DE11DF91FBD0194
:1026E000CF0111240895A1E21A2EAA1BBB1BFD01E4
:1026F0000DC0AA1FBB1FEE1FFF1FA217B307E407E1
:10270000F50720F0A21BB30BE40BF50B661F771F38
:10271000881F991F1A9469F7609570958095909518
:102720009B01AC01BD01CF0108952F923F924F92C2
:102730005F926F927F928F929F92AF92BF92CF9251
:10274000DF92EF92FF920F931F93CF93DF93CDB75A
:10275000DEB7CA1BDB0B0FB6F894DEBF0FBECDBFD2
:1027600019942A88398848885F846E847D848C8493
:102770009B84AA84B984C884DF80EE80FD800C81AC
:102780001B81AA81B981CE0FD11D0FB6F894DEBF8F
:0A2790000FBECDBFED010895FFCF8D
:10279A000909095B005D000A0D001B5B324A001B38
:1027AA005B48001B5B33306D001B5B30303B3030C5
:1027BA00480000010202030303030404040404049E
:1027CA0004040505050505050505050505050505B1
:1027DA000505060606060606060606060606060691
:1027EA00060606060606060606060606060606067F
:1027FA000606070707070707070707070707070761
:10280A00070707070707070707070707070707074E
:10281A00070707070707070707070707070707073E
:10282A00070707070707070707070707070707072E
:10283A000707080808080808080808080808080810
:10284A0008080808080808080808080808080808FE
:10285A0008080808080808080808080808080808EE
:10286A0008080808080808080808080808080808DE
:10287A0008080808080808080808080808080808CE
:10288A0008080808080808080808080808080808BE
:10289A0008080808080808080808080808080808AE
:1028AA00080808080808080808080808080808089E
:0228BA0008080C
:00000001FF
