:100000000C9472000C9493000C9493000C94930045
:100010000C9493000C9493000C9493000C94930014
:100020000C9493000C9493000C9493000C94930004
:100030000C9493000C9493000C9493000C949300F4
:100040000C9493000C9493000C9493000C949300E4
:100050000C9493000C9493000C9493000C949300D4
:100060000C9493000C9493000C9493000C949300C4
:100070000C9493000C9493000C9493000C949300B4
:100080000C9493000C9493000C9493000C949300A4
:100090000C9493000C9493000C9493000C94930094
:1000A0000C9493000C9493000C9493000C94930084
:1000B0000C9493000C9493000C9493000C94930074
:1000C0000C9493000C9493000C9493000C94930064
:1000D0000C9493000C9493000C9493000C94930054
:1000E0000C94930011241FBECFEFD1E2DEBFCDBF31
:1000F00000E00CBF12E0A0E0B2E0E4E1F4E000E0D8
:100100000BBF02C007900D92A030B107D9F712E0E3
:10011000A0E0B2E001C01D92A730B107E1F70E9454
:100120007C010C9409020C94000020EA3FE040E0BE
:1001300050E0E22FF32F3197F1F78A95D1F7089528
:1001400011BA10BA089590E0880F991F0196877030
:1001500090E0089587E08093070121E030E080EA95
:100160009FE0A0E0B0E0E82FF92F3197F1F72A9552
:10017000D1F788E380930801089521E030E002C0C0
:10018000220F331F6A95E2F7822390E00895CF9300
:10019000DF9387E08093070121E030E080EA9FE071
:1001A000A0E0B0E0C82FD92F2197F1F72A95D1F719
:1001B00088E38093080160E070E04091080121E04D
:1001C00030E0C901062E02C0880F991F0A94E2F799
:1001D000E82F8095842B8093080180EA9FE0A0E0BF
:1001E000B0E0C82FD92F2197F1F72A95D1F743E036
:1001F00050E0F42FF35021E030E080EA9FE0A0E0EF
:10020000B0E0C82FD92F2197F1F72A95D1F7809127
:10021000060190E0042E02C0959587950A94E2F7B6
:1002200080FD05C0962F990F960F9F0F06C04F5F58
:100230005F4F46305105E9F69AE080910801E82BBE
:10024000E09308019A3031F46F5F7F4F633071059E
:1002500009F0B3CF892F90E0DF91CF910895982FC7
:1002600010BA11BA883060F5823048F480B38360E8
:1002700080BB992311F4899A0895889A0895825031
:10028000823048F480B3866080BB923011F48A9A41
:100290000895899A0895892F8450823048F480B354
:1002A000856080BB943011F4889A08958A9A0895E5
:1002B00080B38C6080BB963011F48B9A08958A9A33
:1002C0000895CF93DF93C7E0D0E08C2F0E942F01D9
:1002D00086E490E020EA3FE040E050E0E22FF32F98
:1002E0003197F1F78A95D1F72197FFEFCF3FDF07DD
:1002F00061F7DF91CF9108951F930E94C700182FD7
:100300000E9461011A30C9F3812F0E942F01FFCF93
:1003100087E00E942F0186E00E942F0185E00E9465
:100320002F0184E00E942F01089583E00E942F0195
:1003300082E00E942F0181E00E942F0180E00E9454
:100340002F010895CF92DF92EF92FF920F931F93A8
:10035000CF93DF9383E00E94A300082FCC24C394A3
:10036000EE24FF24DE2C802F0E94A300082FF7012B
:10037000E050FE4F8083C0E0D0E0EC2FF0E0E05092
:10038000FE4F80810E942F0128EE33E080EA9FE03B
:10039000A0E0B0E0E82FF92F3197F1F72A95D1F7D7
:1003A00011BA10BA24E630E0E82FF92F3197F1F7AF
:1003B0002A95D1F72196DC1600F710E0D3940E941D
:1003C000C700982F8A30D9F3E12FF0E0E050FE4FBC
:1003D0008081981721F00E948801CC2403C01F5F00
:1003E0001D1569F7F5E0EF16F10431F00894E11CF2
:1003F000F11CCC2029F0B6CFCC2011F00E94610175
:10040000DF91CF911F910F91FF90EF90DF90CF90F0
:040410000895FFCF7D
:00000001FF
