:100000000C9472000C9493000C9493000C94930045
:100010000C9493000C9493000C9493000C94930014
:100020000C9493000C9493000C9493000C94930004
:100030000C9493000C9493000C9493000C949300F4
:100040000C9493000C9493000C9493000C949300E4
:100050000C9493000C9493000C9493000C949300D4
:100060000C9493000C9493000C9493000C949300C4
:100070000C9493000C9493000C9493000C949300B4
:100080000C9493000C9493000C9493000C949300A4
:100090000C9493000C9493000C9493000C94930094
:1000A0000C9493000C9493000C9493000C94930084
:1000B0000C9493000C9493000C9493000C94930074
:1000C0000C9493000C9493000C9493000C94930064
:1000D0000C9493000C9493000C9493000C94930054
:1000E0000C94930011241FBECFEFD1E2DEBFCDBF31
:1000F00000E00CBF12E0A0E0B2E0EAE0F5E000E0D2
:100100000BBF02C007900D92A030B107D9F712E0E3
:10011000A0E0B2E001C01D92A730B107E1F70E9454
:10012000B8010C9484020C94000020EA3FE040E007
:1001300050E0E22FF32F3197F1F78A95D1F7089528
:1001400011BA10BA08958D5F877090E0089587E026
:100150008093070121E080EA9FE0A0E0B0E0E82F73
:10016000F92F3197F1F72A95D1F788E380930801A9
:10017000089587E08093070121E080EA9FE0A0E0F6
:10018000B0E0E82FF92F3197F1F72A95D1F788E3FE
:100190008093080160E070E041E050E0062E02C06C
:1001A000440F551F0A94E2F7842F8095809308012D
:1001B0002AE080EA9FE0A0E0B0E0E82FF92F319735
:1001C000F1F72A95D1F723E030E0E22FE350809158
:1001D000060190E0022E02C0959587950A94E2F7F9
:1001E00080FD05C0362F330F360F3E0F06C02F5F40
:1001F0003F4F2630310549F73AE080910801842BC2
:10020000809308012AE080EA9FE0A0E0B0E0E82FB8
:10021000F92F3197F1F72A95D1F73A3031F46F5F22
:100220007F4F6330710509F0B7CF832F90E00895B9
:10023000982F10BA11BA883060F5823048F480B334
:10024000836080BB992311F4899A0895889A089550
:100250008250823048F480B3866080BB923011F4C3
:100260008A9A0895899A0895892F8450823048F493
:1002700080B3856080BB943011F4889A08958A9A7F
:10028000089580B38C6080BB963011F48B9A0895EA
:100290008A9A0895CF93DF93C7E0D0E08C2F0E9415
:1002A000180180E520EA3FE040E050E0E22FF32F24
:1002B0003197F1F78A95D1F72197FFEFCF3FDF070D
:1002C00069F7DF91CF91089580E00E9418010895A9
:1002D0000895E82F10BA11BA60E070E081E090E074
:1002E000062E02C0880F991F0A94E2F78E2309F4A4
:1002F00038C0623048F480B3836080BB662311F459
:10030000899A24C0889A22C0862F8250823048F46D
:1003100080B3866080BB623011F48A9A17C0899AD4
:1003200015C0862F8450823048F480B3856080BB2E
:10033000643011F4889A0AC08A9A08C080B38C602D
:1003400080BB663011F48B9A01C08A9A81E020EA62
:100350003FE040E050E0A22FB32F1197F1F78A95CC
:10036000D1F76F5F7F4F6830710509F0B7CF0895FF
:100370008FEF0E946901FCCF0E944A010E94B900E0
:100380008A30D1F32AEF80EA9FE0A0E0B0E0E82FC6
:10039000F92F3197F1F72A95D1F7E82FF92F3197F7
:1003A000F1F72A95D1F708959F92AF92BF92CF921D
:1003B000DF92EF92FF920F931F93CF93DF9381E031
:1003C0000E94A300B82EAA24A394C0E0D0E09C2EE3
:1003D0008B2D0E94A300B82EFE01E050FE4F8083BB
:1003E00000E010E0E02FF0E0E050FE4F80810E943E
:1003F00018012AEF80EA9FE0A0E0B0E0E82FF92F93
:100400003197F1F72A95D1F7E82FF92F3197F1F7C6
:100410002A95D1F7E82FF92F3197F1F72A95D1F7DF
:1004200011BA10BAE82FF92F3197F1F72A95D1F7C1
:10043000E82FF92F3197F1F72A95D1F70F5F1F4F6A
:10044000901608F0CFCFCC2484E190EAE92E9FE00B
:10045000F92E012D112DEE2DFF2D3197F1F78A95F3
:10046000D1F70E94B900D82EFAE08F1769F30E94E5
:1004700018018AEFEE2DFF2D3197F1F78A95D1F70C
:10048000EE2DFF2D3197F1F78A95D1F711BA10BAF9
:10049000EE2DFF2D3197F1F78A95D1F7EC2DF0E095
:1004A000E050FE4F8081D816A1F025E080EA9FE061
:1004B000A0E0B0E0E82FF92F3197F1F72A95D1F7B6
:1004C0000E94B900182F0E9464011A3071F3AA2407
:1004D00004C0C3949C1408F0B7CFC530D10521F0F7
:1004E0002196AA2029F073CFAA2011F00E944A0178
:1004F000DF91CF911F910F91FF90EF90DF90CF9000
:0A050000BF90AF909F900895FFCFC9
:00000001FF
