:100000000C9472000C9491000C9491000C9491004B
:100010000C9491000C9491000C9491000C9491001C
:100020000C9491000C9491000C9491000C9491000C
:100030000C9491000C9491000C9491000C949100FC
:100040000C9491000C9491000C9491000C949100EC
:100050000C9491000C9491000C9491000C949100DC
:100060000C9491000C943B010C940D010C949100A4
:100070000C9491000C9491000C9491000C949100BC
:100080000C9491000C9491000C9491000C949100AC
:100090000C9491000C9491000C9491000C9491009C
:1000A0000C9491000C9491000C9491000C9491008C
:1000B0000C9491000C9491000C9491000C9491007C
:1000C0000C9491000C9491000C9491000C9491006C
:1000D0000C9491000C9491000C9491000C9491005C
:1000E0000C94910011241FBECFEFD1E2DEBFCDBF33
:1000F00012E0A0E0B2E0E6E2F7E000E00BBF02C0F1
:1001000007900D92A833B107D9F712E0A8E3B2E047
:1001100001C01D92AE3BB107E1F70E9493000C9421
:1001200092030C9400008F929F92AF92BF92CF9255
:10013000DF92EF92FF920F931F93CF93DF93CDB790
:10014000DEB764970FB6F894DEBF0FBECDBF7894CC
:1001500002E021E048E069E370E380E00E947D0274
:1001600020E0822E22E0922E7E010894E11CF11CF8
:1001700096E1A92E92E0B92E8BE1C82E82E0D82E0E
:1001800080E00E94B70180E00E94700242E062E0DD
:1001900080E00E941F0261E280E00E944402B401FC
:1001A00080E00E949A0142E066E180E00E941F0226
:1001B00060E280E00E944402B70180E00E94D70123
:1001C000C7010E94E6028C0140E1BC01C7010E9408
:1001D000050343E065E080E00E941F0262E280E0E8
:1001E0000E944402B50180E00E949A01B70180E0BC
:1001F0000E949A0142E0B801C7010E94050344E051
:1002000065E080E00E941F02B60180E00E949A0132
:10021000B70180E00E949A01B3CF1F920F920FB6F0
:100220000F9211248F939F93EF93FF9390917A02F3
:1002300080917B02981731F48091C1008F7D80936B
:10024000C10010C080917A0290E001968F73907087
:1002500080937A02E0917A02F0E0E65CFD4F8081C3
:100260008093C600FF91EF919F918F910F900FBEE9
:100270000F901F9018951F920F920FB60F92112496
:100280002F933F938F939F93EF93FF932091BC0203
:100290008091BD0230E090E001968F739070281736
:1002A000390781F08091BD0290E001968F739070C4
:1002B0008093BD02E091BD028091C600F0E0E45859
:1002C000FD4F8083FF91EF919F918F913F912F91EF
:1002D0000F900FBE0F901F901895482F20917A0213
:1002E00080917B0230E090E001968F739070281728
:1002F0003907A1F3433019F4A1E3B1E009C0A42FF9
:10030000B0E083E0AA0FBB1F8A95E1F7AF53BF4F60
:1003100080917B0290E001968F73907080937B02B6
:10032000E0917B02F0E0E65CFD4F60838C9180629F
:100330008C9308951F93CF93DF93182FEB0104C084
:100340002196812F0E946D0168816623C9F7DF9194
:10035000CF911F9108959091BC028091BD0220E041
:1003600030E0981711F021E030E0C90108951F93A3
:10037000282F9091BC028091BD029817D1F38091F3
:10038000BC0290E001968F7390708093BC02E09164
:10039000BC02F0E0E458FD4F108110933902612F48
:1003A000822F0E946D01812F90E01F910895CF92BE
:1003B000DF92EF92FF921F93CF93DF93182F7B0171
:1003C0000E94B701E70193E1C92ED12CCE0CDF1CAE
:1003D00025C0883079F0CC15DD0510F489931BC059
:1003E00068E0812F0E946D0160E2812F0E946D0103
:1003F00068E004C0CE15DF0529F460E2812F0E9479
:100400006D0109C060E2812F0E946D0168E0812FBB
:100410000E946D012197812F0E94B7018D30C9F68E
:10042000809338026AE0812F0E946D011882DF916B
:10043000CF911F91FF90EF90DF90CF900895382FCC
:10044000262F842F6AE00E943503905D909332023C
:10045000842F0E9435030E943503905D90933102F2
:10046000822F0E943503905D90933502822F0E9467
:1004700035030E943503905D909334026FE272E081
:10048000832F0E949A010895982F6132C1F0623241
:1004900038F46F3181F0603280F46E31D9F409C0E4
:1004A000633289F0633268F0643279F0653291F436
:1004B0000EC080E30DC081E30BC082E309C083E37B
:1004C00007C084E305C085E303C086E301C087E37A
:1004D00080932C0269E272E0892F0E949A010895AC
:1004E0001F93182F60E272E00E949A0165E272E0A9
:1004F000812F0E949A011F910895CF92DF92EF926F
:10050000FF920F931F93CF93DF93F42EE22E83304D
:1005100019F4C0E3D1E009C0C82FD0E023E0CC0F2C
:10052000DD1F2A95E1F7C054DF4F6E010894C11C0E
:10053000D11C198118611D829B0140E050E060E4EC
:1005400072E48FE090E00E945503215030402C83EC
:100550001B7F1983FE0132968A81897F8A8397E007
:10056000F91641F098E0F91639F096E0F91631F4F1
:10057000826003C0846001C086608A8380818F7C32
:10058000808391E0E91621F092E0E91629F402C097
:10059000806301C080628083023019F480818860AA
:1005A0008083F6018081806A80831092BC02109261
:1005B000BD0210927A0210927B02DF91CF911F91BF
:1005C0000F91FF90EF90DF90CF900895FC0120E015
:1005D00030E016C090E0C0978A309105A0F4280F53
:1005E000391F3196808180538A3050F4C901880FB9
:1005F000991F43E0220F331F4A95E1F7280F391F57
:100600008081882339F7C9010895EF92FF920F93F3
:100610001F93CF93DF937C01FB01EC01042F10E0CB
:10062000CF01B8010E944103282F205D2A3308F032
:10063000295F2993CF01B8010E944103FB01672B79
:1006400079F71882FE013197D70105C09C9180810E
:100650008D9390833197AE17BF07C0F3DF91CF9191
:100660001F910F91FF90EF900895991B79E004C0BE
:10067000991F961708F0961B881F7A95C9F78095E1
:100680000895AA1BBB1B51E107C0AA1FBB1FA617D9
:10069000B70710F0A61BB70B881F991F5A95A9F72B
:1006A00080959095BC01CD01089597FB092E0526F4
:1006B0000ED057FD04D014D00AD0001C38F4509549
:1006C0004095309521953F4F4F4F5F4F0895F6F776
:1006D00090958095709561957F4F8F4F9F4F0895AE
:1006E000A1E21A2EAA1BBB1BFD010DC0AA1FBB1F36
:1006F000EE1FFF1FA217B307E407F50720F0A21BA8
:10070000B30BE40BF50B661F771F881F991F1A9414
:1007100069F760957095809590959B01AC01BD013E
:06072000CF010895FFCF98
:10072600496E74726F6475636520756E206E756DA3
:1007360065726F3A20004865783A0042696E3A0061
:100746001B5B324A001B5B48001B5B33306D001B92
:080756005B30303B30304800FD
:00000001FF
